:020000041000EA
:1000000000B5324B212058609868022188439860DF
:10001000D860186158612E4B002199600221596106
:100020000121F02299502B49196001219960352056
:1000300000F044F80222904214D00621196600F024
:1000400034F8196E01211966002018661A6600F04E
:100050002CF8196E196E196E052000F02FF8012189
:100060000842F9D1002199601B49196000215960AB
:100070001A491B48016001219960EB211966A021F2
:10008000196600F012F800219960164914480160C1
:100090000121996001BC002800D000471248134993
:1000A000086003C880F30888084703B5996A0420EC
:1000B0000142FBD001200142F8D103BD02B5186610
:1000C0001866FFF7F2FF186E186E02BD00000240BE
:1000D000000000180000070000035F00212200005C
:1000E000F4000018222000A00001001008ED00E03C
:1000F00000000000000000000000000074B24E7A12
:1001000000200420F7010010C3010010C5010010F9
:10011000C1010010C1010010C1010010C101001097
:10012000C1010010C1010010C1010010C701001081
:10013000C1010010C1010010C9010010CB01001065
:10014000CD010010CD010010CD010010CD01001037
:10015000CD010010CD010010CD010010CD01001027
:10016000CD010010CD010010CD010010CD01001017
:10017000CD010010CD010010CD010010CD01001007
:10018000CD010010CD010010CD010010CD010010F7
:10019000CD010010CD010010CD010010CD010010E7
:1001A000CD010010CD010010CD010010CD010010D7
:1001B000CD010010CD010010CD010010CD010010C7
:1001C00000BE00BE00BE00BE00BE00BEEFF3058054
:1001D000103800BEF2EB88717030001094300010BF
:1001E0003402001090A31AE700201F49086006C8D7
:1001F00081F3088810471D48006800282FD10DA4FE
:100200000ECC002902D000F012F8F9E71849194A7B
:10021000002000E001C19142FCD1174988471749ED
:1002200088471749884700BEFDE701C901C29A42C5
:10023000FBD3704794300010C000002064020020FF
:100240003832001000000420000004203832001072
:10025000001004200010042000000000704709482E
:1002600002F054F90047000008ED00E0000000D063
:1002700068020020480600208523001009030010B2
:10028000792400105756000006005250ABB360535B
:10029000C02F001006005250861C0302D02F001001
:1002A000060052505422A29DE82F00100500525023
:1002B000DE65F46838320010F8B5C04606480749D4
:1002C000091A8B10C90FC91810B5491003D0044B77
:1002D000002B00D0984710BD64020020640200206B
:1002E00000000000054B10B5002B03D00449054861
:1002F00000E000BFFFF7E2FF10BDC04600000000B5
:10030000FC050020282F0010F0B5DE4657464E466B
:100310004546E0B5834CA544002402F08BFB012246
:100320001021814B0194009426A800F017F90123B5
:1003300064221D2101940093C2A87B4B00F00EF9AA
:1003400026A800F0EDF9C2A800F0EAF9774B784C46
:10035000029312AB9846774B774F0393774B0FAED0
:100360009A46774B15AD9946764B0493764B059399
:10037000764B0693764B079303239B46029A002104
:1003800026A800F03BF926A800F002F91923210065
:10039000032240461A9302F037FA332006AB3900A5
:1003A0000322C01802F030FA362006AB039903226C
:1003B000C01802F029FA392006AB5146C0180322B2
:1003C00002F022FA404619211B90042003221C90BF
:1003D0001D913900300002F017FA272006AB2100EA
:1003E0000322C01802F010FA2A2006AB4946032265
:1003F000C01802F009FA5846192321001F90032261
:1004000009A820931E9602F0FFF90F2306A8514673
:100410000322181802F0F8F90220192109AB2290E2
:100420002391032221002800219302F0EDF93F23BC
:1004300006A821000322181802F0E6F9422306A8B4
:1004400051460322181802F0DFF9452306A8494651
:100450001818032202F0D8F90499032218A802F010
:10046000D3F94B2306A839000322181802F0CCF95F
:1004700006232593EF331AA90422FF33C2A824953B
:1004800000F03CFAFA20400001F080F85023029975
:10049000032230001A9302F0B7F9272306A8059922
:1004A0000322181802F0B0F90A23022206991C92BE
:1004B0001D93404601321B9602F0A6F9332306A88D
:1004C00003990322181802F09FF9362306A8390071
:1004D0000322181802F098F943461E935B461F93B7
:1004E0000A23494603222800209302F08DF93F2376
:1004F00006A807990322181802F086F9422306A8D5
:1005000004990322181802F07FF95B46C2A82293CF
:100510000322104B1AA9219500F0F0F90E4801F0C2
:1005200035F82BE784FAFFFF00002050482F001019
:10053000602F0010442F0010582F00105C2F001067
:10054000402F00104C2F0010542F0010382F001097
:100550003C2F001088130000EE02000010B50400CC
:1005600002A89C4608C821600078962A00D99622E5
:1005700062606246E360A26000232075962220003C
:10058000002123619200183002F038F9200010BDDC
:10059000F8B546680300002E18D004001A7D002527
:1005A00080691834002A16D0DF689A683B00012160
:1005B000103399400437BF0053681942FCD101350C
:1005C000D051AE4202D004342068F5E75520002116
:1005D00000F074FFF8BDDF689A683B00012110331A
:1005E00099400437BF00000253681942FCD101351D
:1005F000D051AE42EAD004342068F4E7436810B525
:1006000099420CD2537814781B0492782402234325
:100610001343027D002A03D106318900435010BDE7
:100620001B02F9E7F0B5C64600B51204077D1A4370
:10063000090205000A43002F00D012026868002852
:100640004BD0431E052B65D918239C466907AC4443
:10065000CB0F00295BDA9846AA610021C61A06333F
:100660009B007408EB1801311A605A600833A142EC
:10067000F9D10123334219D09E434346F318990020
:1006800069185C1C8A61844210D29C1CCA61A04219
:100690000CD9DC1C0A62A04208D91C1D4A62A04287
:1006A00004D905338A62984200D9CA626646AC69A9
:1006B000002F19D0AA68ED6801212B001033002704
:1006C00099400435AD0053681942FCD101375451AB
:1006D000B84202D004363468F5E75520002100F016
:1006E000EDFE80BCB846F0BDAA68ED6801212B0084
:1006F000103399400435AD00240253681942FCD1EF
:1007000001375451B842E8D004363468F4E7002188
:100710008846A2E718218C460023AC44AFE7C046C8
:10072000F0B5C64600B5050088B08068394902F0CA
:1007300073FA002866D12F69AE683748EB68311824
:1007400002934B1E99412C682A7D200006310392AA
:1007500000F00CFA0123029922003000009302F00D
:10076000F5FA80235B020493FB1CFA011B0313437D
:100770002A4A05201340802205939205A302039C78
:1007800013430793C02263425C41920563421340C6
:10079000234A9B18069301F07BFD01F0AFFF21492E
:1007A00001F091FF804601F0D1FF84B20020002CBF
:1007B0000ED0200001F0A2FF011C404601F07DFF99
:1007C0008721C90501F093FF01F0C0FFC0B200020C
:1007D000240404430494029C3A002100300004AB3A
:1007E00002F008FB0123A34032680F491343336032
:1007F0004A788B7828000978FFF714FF08B080BC8E
:10080000B846F0BDA868034902F038FA070028612D
:1008100092E7C046282F00100000E0AFFFFFFF9FC7
:10082000000006400024F44A502F001082B0F0B5BA
:10083000DE4657464E4645468446E0B587B011939E
:1008400013AB1B781000019363465A680C008A4270
:1008500048D9002846D0129B002B43D0511A814220
:100860004AD811989B460290581E03906018814602
:100870000020634680469246A700183767440491DB
:100880000593A24527D94046049901F071FE039BC8
:10089000984200D91800029B460036189E197078BD
:1008A000019BFF21584301F063FE019B0504307852
:1008B000FF21584301F05CFE0002019B0543B07824
:1008C000FF21584301F054FE059B05431B7D002B7F
:1008D00000D02D023D60434601345B449846043706
:1008E000A145CED107B0F0BCBB46B246A946A04652
:1008F000F0BC08BC02B018470100B2E7F0B54E46A4
:100900004546DE465746E0B58DB003910A910B92FD
:10091000190064220593FA2380469146DB00994230
:1009200000D218E14946059801F022FE0B9A039F78
:1009300053009B189B00FF1804934B465C1C00233C
:100940009B4618334344069318234246CA46B94689
:100950005B429B1A08900793099443465D68AB007D
:1009600006D00698079AC3180021D21801F046FF56
:10097000049B002B24D05B461802C01A514601F09C
:10098000F7FDC3B20026039C029317E02368002BF7
:1009900011D0A268002A0ED0AF1B9F4200D91F00C1
:1009A000029B31000193A3683A00009340466368BC
:1009B000FFF73CFFF6190C34A14503D0B542E5D84A
:1009C000002D1BD0434640469C691B7D00261830F5
:1009D000002B00D1AAE04346DF689A683B00012162
:1009E000103399400437BF0053681942FCD10136D7
:1009F000D451B54202D004300468F5E755200021F7
:100A000000F05CFD059B534502D3089800F0BEFD45
:100A100001239B44D345A0D353465246099C1B0255
:100A20009B1A9B4623021B1B0293182343440693E5
:100A3000182342464F46D1465B429B1A9A464B4684
:100A400005935346B946079343465D68AB0006D00D
:100A50000698079AC3180021D21801F0CFFE049B14
:100A6000002B22D05846059901F082FDC3B29A4668
:100A70000026039C17E02368002B11D0A268002AEF
:100A80000ED0AF1B9F4200D91F0053460193A368AD
:100A9000310000933A0040466368FFF7C7FEF6193D
:100AA0000C34A14503D0AE42E5D3002D1AD0434605
:100AB00040469C691B7D00261830002B22D04346FF
:100AC000DF689A683B000121103399400437BF006A
:100AD00053680B42FCD10136D451AE4202D00430EF
:100AE0000468F5E75520002100F0E8FCFF239B4453
:100AF000029B5B45A8D10DB0F0BCBB46B246A946EF
:100B0000A046F0BD4346DF689A683B0001211033E0
:100B100099400437BF00240253680B42FCD10136D0
:100B2000D451B542DED004300468F4E74346DF68B0
:100B30009A683B000121103399400437BF0024021A
:100B400053681942FCD10136D451B54200D155E762
:100B500004300468F3E70800142101F009FD814620
:100B6000031E00D0DEE601339946DBE610B54024D3
:100B7000074A83009B181A68C0005440C0221440E2
:100B80008022520113431C60024BC018416010BD0B
:100B900004C0014000400140024B18688007C00FAC
:100BA0007047C04600C00640EFF3108072B6034A9B
:100BB0001368002BFCD0BFF35F8F70472C0100D06F
:100BC000BFF35F8F0022024B1A6080F310887047DA
:100BD0002C0100D070B58C461600EFF3108472B66D
:100BE0000F490B68002BFCD0BFF35F8F6346DB0817
:100BF000C5180722C05C63461A40012393401A00BF
:100C00000240034207D118432870BFF35F8F0A6088
:100C100084F3108870BD6146300001F031FCC0469D
:100C20002C0100D00021044B044ABFF35F8F02C3A4
:100C30009342FAD17047C046000100D0800100D035
:100C4000044A1078431CDBB2172B00D91023137011
:100C50007047C0469801002001238340002904D03A
:100C6000034A1360034A13607047034A1360FBE7AB
:100C700080E200E000E100E080E100E0024B1030A3
:100C80009B688000C058704700ED00E070B50D0013
:100C9000EFF3108672B60F4A1368002BFCD0BFF337
:100CA0005F8F0D4B10309B6884001B590B4A934299
:100CB00003D09D4201D001F0FBFB074B9B681D5107
:100CC000BFF35F8FBFF35F8F0022024B1A6086F382
:100CD000108870BD240100D000ED00E0CD010010AF
:100CE000F0B5D6464F464646C0B50D0082B0EFF38C
:100CF000108872B65B4A1368002BFCD0BFF35F8F7D
:100D0000594B5A499A68030010339F00D4599C46A6
:100D10008C4238D0AC4248D0554EA21B2F2A32D834
:100D20000122130083405348006801930340994611
:100D30005148019B0360BFF35F8FEFF305839A4631
:100D4000002B34D09C4501D001F0B2FB01232200DE
:100D50009A439068854208D172E04B005B189B0073
:100D6000F3189868A84232D01A000621515600297B
:100D7000F3DA854250D04B46002B24D03F4B019AEA
:100D80001A603C4B1A60384B9B68DC51BFF35F8F95
:100D9000BFF35F8F0022334B1A6088F3108802B0D4
:100DA000E0BCBA46B146A846F0BD0C00EBE7230014
:100DB000934398681A008542D7D106201856002818
:100DC00009DA0C0030E02C4B019A1A60DBE70620B0
:100DD0001856002821DB42001118890075188A4630
:100DE000A9689960E979D971062169569971002934
:100DF00024DBAD88F11A6D052D15554449190905F7
:100E00001F4D490D2943998013181E4A9B001178E4
:100E1000F31899711070AEE713005146002914D1F0
:100E2000FF3191711849918016490A789A71174AD1
:100E30009B1B5B415A43120D0A709CE71249E2E783
:100E40000620105613000028C5DA114A1149D21A9B
:100E5000083A5002400D014399800F4952080A4355
:100E6000DA8088E7240100D000ED00E0CD01001019
:100E70009C01002000E100E080E100E080E200E071
:100E800000E0FFFF4506002001BDFFFFAAAA000009
:100E9000D601002000F0FFFF00F8FFFF0123EFF371
:100EA0000581034370B59C46EFF3108572B6214A65
:100EB0001368002BFCD0BFF35F8F1F4B04001F4A49
:100EC000E41A64416243120D1D4C8900A66852B2B7
:100ED000765866451CD00621595691421CD01221E5
:100EE0005956914222D01E215956914220D02A2192
:100EF00059560324914210D0124B19781A708171FF
:100F0000BFF35F8F00220B4B1A6085F3108870BD12
:100F1000A3680D4C5C50EFE70024610009198900BB
:100F20005B18FF21997109499980E5E70124F4E7ED
:100F30000224F2E7240100D09C010020AAAA0000AC
:100F400000ED00E045060020CD01001001BDFFFFCF
:100F5000084B094A1360094A1360094A1360094A99
:100F60001360094A1360094A1360094A1360094A69
:100F7000136070478080808000E400E004E400E0BB
:100F800008E400E00CE400E010E400E014E400E019
:100F900018E400E01CE400E0024BC918890001607D
:100FA0007047C0464000003410B50400FFF748FE0B
:100FB00001002000FFF7F0FFFF232371BFF35F8FD5
:100FC00010BDC04610B50400FFF73AFE0100200036
:100FD000FFF7E2FFFF23A380BFF35F8F10BDC04682
:100FE00083680B48091812181201090159189B1837
:100FF0005A68012094464A68944501D802D00020DE
:10100000C0B270471A680B689A42F9D8F7E7C04631
:10101000FFFFFF0F0A4B1968EFF3108072B60A68E2
:10102000002AFCD0BFF35F8F1B68BFF35F8F0022E5
:101030001A6080F3108840BF002000217047C0462E
:1010400028060020F0B5CE46474680B585B0009210
:1010500001930EAB1C780FAB1B780700994605680F
:10106000002C56D1AC7B002C3AD0631E5E00F618E3
:101070002B689B195A78AA73002A00D1EA730022C0
:101080009A705A701A702D4AA118BA68090152183C
:1010900000980199106051600C9991600D99D16090
:1010A00000229A705A701A70697B002924D08846F1
:1010B00022006B68A86898474246511E2B6803922D
:1010C0004A0052189E199B1800280ED04146B17054
:1010D0001A78002A23D11C70039B6B739C420CD09E
:1010E00005B0C0BCB946B046F0BD9C703278002A4D
:1010F00000D05A70039B33706C73387D009A019B4B
:1011000000F030FC051E11D1109B002BE8D01D70A3
:10111000E6E7631E5E00F6182B689B19B3E7727052
:101120001C70039B6B739C42DAD1E6E74B46002BA5
:10113000EAD12100386800F045FEE5E7FFFFFF0F28
:10114000624B8200F0B5D4580023DE4657464E4627
:1011500045469B46E0B58BB0079000F06DFB62689A
:10116000EFF3108A72B656461368002BFCD0B246D5
:10117000BFF35F8F23685F7B9C46002F0CD16368B1
:10118000BFF35F8F1F6086F310880BB0F0BCBB46C7
:10119000B246A946A046F0BDA5684D4BA946FB182E
:1011A0001B0199444B460CCB15001E002D1A8E4195
:1011B000002E0CDD079800F0D5FB6368BFF35F8F4E
:1011C0005A461A608AF310880028C6D1DDE7002E3F
:1011D00001D1002DEED10021604600F061FD4B46AB
:1011E0000200186859689B680890099198464B4618
:1011F000DB6806937B1E99464946E368585C636842
:10120000000202432261BFF35F8F5A461A608AF3DD
:1012100010884346002BB8D006993843C04762680F
:1012200005000E00EFF3108A72B61368002BFCD095
:10123000BFF35F8F002E24DB2B00334302D02369E2
:10124000002B37D12368DA7B002A05D0013A1968D0
:10125000500082188A1857709A7B002A00D19F7319
:10126000DF734B464946E268D35C013353545B4617
:1012700023616368BFF35F8F5A461A608AF3108850
:101280006BE72369002BDDD0089A099B521BB34101
:10129000002B02DA01220F4B52420021049101314E
:1012A0000391069920000191414602970091FFF7B2
:1012B000C9FEDCE700F0C0FA2A00330012184B41E7
:1012C000002BEADA0122034B5242E6E71406002023
:1012D000FFFFFF0FFFFFFF7F10B5144C6368002B6B
:1012E00004D00A211248FFF757FE10BD2300114A0F
:1012F0001021206800F0E4FB032000F091FA0320A5
:1013000000F098FB03200C4900F0E6FAFFF798FC88
:101310000A4BC01803232375D0231B061B688000CB
:101320006375074B6060DC60DBE7C046E4010020CA
:1013300028060020E10F0010411100104000003489
:1013400014060020F0B54E46DE4657464546E0B549
:1013500085B0019310AB1B780600039300239946D8
:10136000009202937268EFF3108B72B61368002B31
:10137000FCD0BFF35F8F3468A57B002D00D16DE0FA
:101380006B1E9A465F0023685744DB195A78A27394
:10139000002A00D1E273474AA918B268090152181D
:1013A00000980199106051600E9991600F99D16079
:1013B0004A469A705A701A70637B9846002B5DD02B
:1013C0002A0041466368A06898474246511E236838
:1013D0004A005218DF199B18002848D04246BA70BC
:1013E0001A78002A00D07A701D7043466373454511
:1013F00045D05246F368985C7368BFF35F8F4A46E6
:101400001A608BF31088029B002B08D1000228433E
:1014100005B0F0BCBB46B246A946A046F0BD039B52
:10142000002B44D00E9B00200F99984703000B43DC
:101430003DD004000D1E2FDA009A019B121BAB4118
:101440000092019380221206934204D301231A4C86
:101450005B4200930194039B029383E77368BFF39D
:101460005F8F1D608BF3108801204042D0E79D7094
:101470003A78002A00D05A7043463B706573307D3D
:10148000009A019B00F06EFA02900028B1D029006A
:10149000306800F097FCACE700F0CEF9802200192C
:1014A00069411206009001919142D4D3CEE7002009
:1014B000AEE7C046FFFFFF0FFFFFFF7FF0B585B02F
:1014C00004000D0000F0B8F924184D41002D02DA97
:1014D0000124294D644206267642F71736196F41DA
:1014E000AF4212D80FD000F0A7F932003B00121A19
:1014F0008B41002B13DC002B3AD02000290000F098
:10150000DBF905B0F0BDA642EDD90026002700F0BA
:1015100093F932003B00121A8B41002BEBDD0023C4
:1015200002930193154B3200009315483B00FFF7DF
:1015300009FF0130E1D03900124A1348536A994239
:1015400004D8976ABE42D8D99942D6D10768EFF33A
:10155000108C72B63B68002BFCD0BFF35F8F036822
:10156000BFF35F8F00271F608CF3108820BFE5E773
:10157000002AC2D0D3E7C046FFFFFF7F151000103E
:10158000E40100200040054028060020F0B585B0A9
:10159000040000F051F9FA2206000F002000002399
:1015A0000021920001F06CF88019794104000D1EB1
:1015B00002DA0124284D644206267642F7173619CE
:1015C0006F41AF4212D80FD000F036F932003B0025
:1015D000121A8B41002B13DC002B3AD0200029007B
:1015E00000F06AF905B0F0BDA642EDD9002600274B
:1015F00000F022F932003B00121A8B41002BEBDD88
:10160000002302930193154B3200009314483B00D2
:10161000FFF798FE0130E1D03900124A1248536AB0
:10162000994204D8976ABE42D8D99942D6D1076860
:10163000EFF3108C72B63B68002BFCD0BFF35F8FCA
:101640000368BFF35F8F00271F608CF3108820BFF3
:10165000E5E7002AC2D0D3E7FFFFFF7F1510001097
:10166000E40100200040054028060020F0B5EFF31B
:1016700005834746CE4680B5050007000C0085B0BF
:10168000002B10D0344A0020536A8B4206D3926A52
:101690005B1A591E8B41AA424041184305B0C0BC99
:1016A000B946B046F0BD2D4D029301932C4B02007C
:1016B000009328000B00FFF745FE00280CDC264AAB
:1016C0000020536AA342E9D3926A1B1BBA424041ED
:1016D0005A1E93411843E1E720BF6A68EFF3108375
:1016E00072B699461368002BFCD0BFF35F8FFF22C0
:1016F0002B6802409C465B7BC1B2013A8B420DD005
:1017000063465600B0461B68904443449B78002BC8
:1017100004D12A69904207D12B6105E0030AE868E9
:10172000DBB2825C9A4213D06B68BFF35F8F0022FA
:101730001A6089F31088084A0020536AA342ADD387
:10174000926A1B1B591E8B41BA4240411843A5E7C0
:10175000604600F037FBE7E700400540E401002069
:1017600015100010F8B5EFF30582CE46474610007D
:1017700080B51038EFF3108872B6224B9C46634652
:101780001B68002BFBD0BFF35F8F01231900814042
:101790001D4C1E4F6163A1461D4C1E0021603D780B
:1017A0002C00C4402640234215D04B465E6A194B9C
:1017B0008400E3589E4218D3174B8D43E3583D7085
:1017C000BFF35F8F002261460A6088F31088002B08
:1017D00007D0984705E0BFF35F8F63461E6088F32C
:1017E0001088C0BCB946B046F8BD0C4B9200D21868
:1017F00013681360BFF35F8F00236246136088F3A2
:101800001088EEE7280100D0004005404606002081
:101810003C7005402C06002098050020D03F054074
:1018200010B50100024A0348FFF7D4F910BDC046C5
:10183000642F001044060020034B596A0A00986A7E
:10184000596A8A42FAD170470040054070B50500D8
:101850000E00184A536A1900946A536A8B42FAD1EF
:10186000200019002C00350024184D41AB4216D839
:1018700013D0104B2A005B6A9D4203D90D494B6A75
:101880009342FCD3934207D10A4A02E0516A99423B
:1018900002D1916AA142F9D370BDA042E9D9054BAA
:1018A0005B6A1C005A1CEFD0012201246442E51738
:1018B0005242E3E700400540064A536A9942FCD889
:1018C00007D1044B02E05A6A914202D19A6A8242DD
:1018D000F9D370470040054070B504000D00EFF3E8
:1018E000108672B61A4A1368002BFCD0BFF35F8FC4
:1018F000002D1BD02000FFF7C1F9164988420AD0FD
:101900002000FFF7C3F901212000FFF7A5F901230B
:10191000A340114A1360114BA400E550BFF35F8F41
:1019200000220B4B1A6086F3108870BD0121A14084
:101930000A4BA200D5500A4B20001A788A43054969
:101940001A70FFF7CDF900212000FFF785F9E5E7D0
:10195000280100D065170010386005409805002068
:1019600046060020F0B54646D6464F461C00C0B598
:10197000060094462A4A516A0B00906A516A9942BD
:10198000FAD18C4208D805D00120E0BCBA46B14655
:10199000A846F0BD8445F7D9EFF3108772B6214A07
:1019A0001368002BFCD0BFF35F8F0125B540614663
:1019B0001D4A00201378924698462B43DBB21370E1
:1019C0009946174A331D9B0055639950174BB10038
:1019D000CC50136A2B4219D0516A0B00906A516A9D
:1019E0009942FAD18C4219D801D1844516D8C14503
:1019F0000BD00B4B0E4A1D625D631F231E401E3B26
:101A0000B3401360534642461A700120BFF35F8F04
:101A10000022044B1A6087F31088B6E70020F5E730
:101A200000400540280100D0460600202C0600207A
:101A300080E200E0EFF3108C72B60A490B68002BCD
:101A4000FCD0BFF35F8F01238340074A074813622E
:101A500002789A430270BFF35F8F00230B608CF310
:101A600010887047280100D000400540460600203D
:101A700070B506000D00140000291CD0002A12D0F9
:101A8000736880689847611E32684B006E1E5B1851
:101A900071008919D3185218002806D09D7011784A
:101AA00000290AD11470280070BD9470197800299B
:101AB00000D051701D702000F6E759701470F2E7E5
:101AC00010B50400A3600023C8B2637301336260E1
:101AD0002073A373E0732468621C012805D90133C5
:101AE000DBB2137003329842F9D1FF231940013958
:101AF0004B005B18E4180023637010BDF8B5CE46A8
:101B0000474606000C0080B5002908D04A1E03682D
:101B100051008A1890469A185578002D04D120005B
:101B2000C0BCB946B046F8BD691E48004718DB196D
:101B30005978894600215970517073682A00210034
:101B4000B06898473268D3194244002811D09C707D
:101B50001178002900D059701570250049463000D1
:101B6000FFF7CCFF290002003000FFF781FF0400DF
:101B7000D5E795701978002900D051701C70EDE7F9
:101B8000F0B54F4646460D00D6466B1EC0B50168FF
:101B90005E00F6180400885D8B1991469C4682B061
:101BA000002851D0421E53009B18CB185F78019734
:101BB000002F1FD14E46002E11D0E37B002B4ED0BC
:101BC000013B5A00D318CB185D70A37B002B39D092
:101BD000E573002805D0421E53009B18CB18002245
:101BE0009A7000236246537002B0E0BCBA46B14618
:101BF000A846F0BD013F7A00D2198A180021577813
:101C000051705970019A01002000FFF731FFB8466A
:101C10008246002F07D07A1E530021689B18CB18EC
:101C20005A78002A20D1514642462000FFF720FF73
:101C3000B4464B4621688C44002BCAD0E37B002B72
:101C4000C3D0BDE7A573C3E7002ACAD0E37B002B4E
:101C5000B6D1A37B002B20D1A573E573C1E7A37B8D
:101C6000002BEFD0E573B7E7501E84464000604478
:101C7000091800204F784870587041462000FFF73F
:101C8000F7FE390080462000FFF738FF414602008A
:101C90002000FFF7EDFE8046C5E7E573A1E7C046EB
:101CA000F0B54F464646D646C0B5457B02686B1E2A
:101CB0005E00F6188946915D931904009C4682B037
:101CC000002953D0481E43001B18D3185F78019792
:101CD000002F21D14E46002E11D0E37B002B51D096
:101CE000013B5800C318D3185D70A37B002B3BD079
:101CF000E573002905D0481E43001B18D3180022A5
:101D00009A700023624628005370617302B0E0BCF1
:101D1000BA46B146A846F0BD013F7800C019121876
:101D20000020577850705870019A2000FFF7A0FEED
:101D3000B8468246002F07D07A1E530021689B18B0
:101D4000CB185A78002A22D1424651462000FFF78C
:101D50008FFEB4464B46226801009444002BC8D045
:101D6000E37B002BC1D0BBE7A573C1E74B46002B3B
:101D7000C7D0C37B002BB3D1837B002B20D18573CD
:101D8000C573BEE7A37B002BEED0E573B4E7501E0E
:101D9000844640006044091800204F78487058700D
:101DA00041462000FFF764FE390080462000FFF71F
:101DB000A5FE414602002000FFF75AFE8046C3E719
:101DC000C5739EE770B5040000292CD0437B8B427D
:101DD0002ED04B1E05685800C01828188378002B99
:101DE00021D0013B5A00D318EA18EB5C8B4202D198
:101DF0001BE0002B08D0013B5A00D218AA185378D8
:101E00008B42F6D1437853700023012283704370D4
:101E10002000FFF7B5FE617B02002000FFF728FEDF
:101E20006073012000E0002070BD43781370EBE781
:101E300001221900FFF7A4FEF2E7C046F0B5C6463E
:101E400000B5040082B006200E0000F021FA051E45
:101E500074D0524B80229C4200D191E0504BD2036F
:101E60001A60504B50491A6010008B689843FBD1A0
:101E70004E4B4F4AE31859424B4180215B004900C9
:101E80000620995200F004FA3100C00000F070FB07
:101E9000C30925D0474A934200D875E0002346493C
:101EA000464A6162A362256B9046EB0720D522006B
:101EB000C02330329B011343414A06201A60666AF0
:101EC000A36AB601F61800F0E3F93E4900F050FBB2
:101ED0000100B00200F04CFB0021FFF7B7FC07E067
:101EE0004022012190466162A362256BEB07DED49C
:101EF00027008026E36A00232C3776013E433360B7
:101F00000620256300F0C4F94146800000F030FB54
:101F1000236B05009846DB0715D46023E26A5A401C
:101F20000E331340336043462363802310229B010A
:101F30003B431A60224B23630323A364280002B0AF
:101F400080BCB846F0BD2200C02330329B01134351
:101F50001B4A06201A60636AA26A9B019B180193C0
:101F600000F096F9019B17499B02019300F000FBDA
:101F70000100019800F0FCFA0021FFF767FCCCE7B4
:101F8000074B12041A606CE77F22024001325208AC
:101F900099018918884619001300A4E700800340BE
:101FA00000E0004000F0004000C000400080FCBFA6
:101FB0003C060020FEFF0000FFFF0000C0FF3F00C6
:101FC000010300004E0E000010B50C2082B000F09E
:101FD000BDF9FEF7E1FD002810D08B4B8B488B49F3
:101FE0008B4A186059609860D9601861596198618E
:101FF000D961186259625A6202B010BD854CA0675F
:1020000000F0ACF90122844B1A60636C012BFCD107
:102010000322824B1A607F4A936B012BFCD1013360
:1020200001217F4A7F480093043300F037F90523EC
:102030007D4A009301217D4800F030F97C4B5A68BD
:10204000FF2A02D8802252005A608022734B6E4CC5
:1020500012011A602169002907D0606900F088FA2E
:10206000013043001B18033BFDD2E023704A714846
:1020700011680B40036002231168594001330B4083
:102080000421036093681942FCD080216A4B090146
:1020900019608021694B490051602361684B5A687F
:1020A000FF2A00D85960032201215B4B1A60644A61
:1020B00093681942FCD0E023106803406148036034
:1020C000126803234A40022113405D4A036093686B
:1020D0001942FCD080215C4B0901196080215B4BC7
:1020E0004900516063615A4B5A68FF2A00D8596011
:1020F0008022584B12011A60E169002907D06069FB
:1021000000F036FA013043001B18033BFDD2E023F8
:102110004F4A11680B4050490B6080214F4B090119
:1021200019608021394B49005160E3614C4B5A687A
:10213000FF2A00D8596080224A4B12011A60216A96
:10214000002907D0606900F013FA013043001B1822
:10215000033BFDD2E023424A11680B4042490B6029
:102160008021424B0901196080235B00536080226B
:10217000264BD20223623E4B5968914200D25A60EC
:1021800080223C4B12011A60616A002907D0606905
:1021900000F0EEF9013043001B18033BFDD2E023B1
:1021A000334A11680B4034490B608021334B0901DD
:1021B00019608023DB025360154B6362304B5A6811
:1021C000FF2A02D8802252005A6080222D4B120131
:1021D0001A60A169002907D0606900F0C9F90130CF
:1021E00043001B18033BFDD2E023254A11680B4036
:1021F00025490B608021254B0901196080235B0074
:102200005360124BA361F7E668020020006CDC0209
:102210001BB70000008000403CB0004030B00040E0
:10222000002F685900800240008C864700C00240A1
:10223000308000403090004030A00040001BB700CC
:102240003C8000403C9000403CA000404059730757
:102250005480004054B000405490004054A00040CE
:102260006080004060B000406090004060A000408E
:102270006C8000406CB000406C9000406CA000404E
:102280004880004048B000404890004048A00040CE
:10229000014B8000C058704768020020F0B5C64668
:1022A000040000B52448160098460D0000F060F9BF
:1022B0000100300000F05CF94346069A1B0412034B
:1022C00013439C4623680600002B24DB1B4B1C4851
:1022D000E218531E9A4180235242120B9B011203B3
:1022E000D218184B1A60184B1A60130081688B4380
:1022F000FBD1C023221D9B01134321222560A66030
:102300001A602268002AFCDA6246E26008221A603B
:1023100080BCB846F0BD3F2322681340AB42D5D104
:10232000A3681B051B0D8342D0D1EE22E368D202C5
:1023300013406345CAD1EBE7001BB7000040FDBF67
:1023400000C0004000E0004000F000408023024A4E
:102350009B000343D362704700800540AA23064ACE
:102360001B0113602F230549D360054B1960536887
:10237000002BFCDA7047C0460040024000B0FA0073
:10238000006002402C4B2D4A70B51A602C4A2D4B30
:102390002D491A6014008B689C43FBD12B4D2C4EA9
:1023A000B54208D2013E761BB608013608CD01348D
:1023B0009847B442FAD1FFF707FE264A214B1A602C
:1023C000214A9368DB43DB01DD09002BF9D1402270
:1023D000214B224C224E9A675A671A67DA66B4423A
:1023E00008D223682000002B20D00834FEF7EAFD35
:1023F000B442F6D31B4C1C4EC022B168200000F042
:1024000003FAB460FEF70EFCFEF7A2FDFEF764FFD0
:10241000164C174EB44208D2013E361BB6080136A0
:1024200008CC01359847AE42FAD170BD0834FEF7AA
:10243000BBFDB442D5D3DDE700E00040BFCDFBFEDD
:10244000FE7F3C0000F0004000C000405002002031
:1024500060020020FFFFFF0100F001404802002061
:10246000500200200000002000ED00E0600200208B
:102470006402002000BEFDE710B5FFF7FBFFC04679
:102480000FB400B5084883B000F056FA049B002B47
:1024900007D005A91800019100F018F8034800F0D2
:1024A0004BFA0120FFF7E6FF882F0010982F00104D
:1024B00010B50148FFF7E4FF9C2F001010B500286D
:1024C00000D110BD00F0EEF9FBE7C04610B5094A97
:1024D0000300146884B0002C08D001220091064843
:1024E000524203A9A047012004B010BD00F024FA15
:1024F0000020F9E7F8050020BD2400100148042160
:10250000014B1847100200202D250010002310B5A4
:102510000100988A1B8B984710BDC046162310B542
:10252000010018885B88984710BDC046F8B547463B
:10253000CE4680B50F1E18D01423994604330400EC
:102540000025012698464B461888434621681B887B
:10255000984701C4431E984101350640AF42F2D16D
:102560003000C0BCB946B046F8BD0126F8E7C04609
:10257000114A936F9B0813D210665166002905D04B
:10258000FFE7FFE7FFE7516F106F704704B50028C2
:1025900001D00020C04300F0B7FC002104BDC046BC
:1025A000F0B5146E556E576F166FFFF7E5FF1466A2
:1025B000556657671667F0BD000000D0132370B54D
:1025C0001D78012D15D010DD1D48FFF7A7FF1D4C0C
:1025D00001008022200000F017F9022D2DD01A48AA
:1025E000FFF794FF194B186070BD194B154CA3648D
:1025F000F5E7174B134C23606360A360E36023612E
:102600006361A361E36123626362A362E3622363A4
:102610006363A363E36323646364A364E364236584
:102620006365A365E36523666366A366E366236764
:102630006367A367E367A364D1E7054BA364CEE7B1
:1026400053440000900300204C3300002406002077
:102650005526001007B5604601880A0A0230DF2AB5
:10266000FAD1C9B2820804D302884088000410431A
:1026700000E00068014A5050039007BD900300201D
:1026800051434343C9188C46110C83B24B4310B4D9
:10269000040C614392B280B2504362431C041B0C91
:1026A000001910BC59411304120CC0185141614467
:1026B000704700004840414048400E4B5B68184757
:1026C0000C4B1B6818470C4A936F9B0802D2094BAE
:1026D000DB681847F0B5146E556E576F166FFFF72D
:1026E000F6FF054A1466556657671667F0BD014B3D
:1026F0009B68184790040020000000D0491A002869
:1027000008D1084670470000C10FC90700D54042F4
:10271000002817D0F44603B40B4B1B68984706BC3F
:1027200081409E384042803107D20B0607D04900D5
:10273000490AC0051043084360470130F8E7490AD9
:102740008902F5E77047000024060020014B5B6A10
:102750001847000090040020132310B51C7813487C
:10276000FFF7DCFE012C0BD004DD010080221048B5
:1027700000F04AF80F48FFF7C9FE0F4B186010BD74
:102780000B4C01005422200000F03EF80B4B636517
:10279000A365E36523666366A366E36623676367F1
:1027A000A367E3672362E361E4E7C04653460000A2
:1027B000900400204C33000024060020C1270010A4
:1027C00007B5604601880A0A0230DF2AFAD1C9B289
:1027D000820804D3028840880004104300E00068A7
:1027E000014A5050039007BD900400200148042185
:1027F000014B1847200200202D250010014B1B68BB
:102800001847000020020020014B5B6818470000B9
:1028100020020020F8B5437D07000D001600002BB4
:1028200038D0002A1ADD0B780A2B18D00020012E90
:1028300009D0012421006B5C01340A2B1AD0B44268
:10284000F8D1864203DD311A3B6828189847AD1944
:10285000013D2B780D3B5A4253413B75F8BD037D3A
:10286000002BE3D102210E483B689847012EEED0A1
:102870000120DEE76B1E5B5C0D2BE0D0884203DAA3
:10288000091A3B6828189847054802213B68984771
:102890002000D4E70368110028009847DEE7C0460F
:1028A00058300010F0B5CE46474680B583B06B4631
:1028B0000600DD1D2870FEF7BFFF0023194A12181D
:1028C0004B41002B02DA0122174B524217490800F4
:1028D000894600F021FB164B80461C68002C14D062
:1028E000144F02E02469002C0FD02368002BF9D08C
:1028F0003B68002B01D09C42F4D12000012229002A
:10290000FFF788FF2469002CEFD14346002B05D147
:10291000300003B0C0BCB946B046F0BD484600F038
:10292000EBFAF5E740420F00FFFFFF7F480200206F
:10293000F0050020F4050020F0B5DE464E46454681
:102940005746E0B583B0814600F0A2FA8046FEF714
:1029500073FF0023264A12184B41002B02DA012292
:10296000244B5242244908008B4600F0D5FA234EEE
:1029700082463468002C35D00A27214D02E02469B4
:10298000002C16D02368002BF9D02B68002B01D027
:102990009C42F4D1200042464946FFF73BFF6B467C
:1029A00020000122D91DDF71FFF734FF2469002CBC
:1029B000E8D15346002B17D13468002C06D0636849
:1029C000002B0BD098472469002CF8D1404603B067
:1029D000F0BCBB46B246A946A046F0BD2469002C17
:1029E000EDD1F3E70028F1D0584600F085FAE3E78F
:1029F00040420F00FFFFFF7F48020020F00500204B
:102A0000F40500200A4A1368002B05D10CE01A00D7
:102A10001B691032002B07D08342F8D1002902D164
:102A200018691060196170470029FCD01060FAE73E
:102A3000F005002010B500F0CBF8012010BDC04615
:102A4000F0B5002915DD0E4B0D271A680D4B0E4C05
:102A5000D3185D426B41451820215B001E5F04784E
:102A6000A64207D093691942FCD101301460A842F4
:102A7000F5D1F0BD93691942FCD11760F2E7C04669
:102A8000400600200080FCBF3C060020224B30B5F1
:102A90001B680D1E9C462EDD441E102100201F4B7E
:102AA0001A689369194216D1013093691942FCD111
:102AB000136823548542F4D16346002B09D0502378
:102AC00038219363536B3432194080235B011343E5
:102AD0001960280030BD6346002B09D050233821EF
:102AE0009363536B3432194080235B011A431160A6
:102AF0000028EFD10DE0002B0BD050223821074BDE
:102B00001B689A635A6B343311408022520113437D
:102B1000196003204042DDE7A805002040060020A0
:102B2000064B10B51B68002B06D00021044A126822
:102B30009163044A1068984710BDC046A80500205C
:102B400040060020AC050020F0B51C4E1C4B32683E
:102B5000C646D318884659424B411A4D14330400D7
:102B600000B518002B68002C08D0002B12D042466C
:102B7000154B2C601A6080BCB846F0BD002BF6D017
:102B8000060000219463FEF767F830000F49FEF756
:102B9000A7F8ECE707000D49FEF778F801213800A7
:102BA000FEF75AF85022382133689A635A6B34334F
:102BB00011408022520113431960D8E740060020DB
:102BC0000080FCBFA8050020AC050020212B0010D0
:102BD0000C4B10B51B780C4B0C4C1B780C4B02218A
:102BE00000202360FDF7C2FF02210120FDF7BEFF98
:102BF000E12120684902FFF721F901210548FFF78B
:102C000001FF10BD903000108C30001040060020F5
:102C1000004003403002002070B506000D00FDF7B3
:102C2000C3FF1449144A731859424B4105249B00B1
:102C3000995801222C572D792023AA405B1B013A79
:102C4000002C0ADB9C4213DCA24011404B4259414C
:102C5000CCB2FDF7B5FF200070BD202D02DD07E0EE
:102C6000013B05D314009C402142F9D10124F0E737
:102C70000024EEE70000D0AF90050020F8B55746DD
:102C80004E464546DE46E0B506000F00FDF78CFFD8
:102C90002B4B8246F3185A4253412A4A9B00D05884
:102CA000914601223D7905249846AA4020233C57AD
:102CB000013A5B1B002C38DB9C4233DC1300A34041
:102CC00018422FD1A240130093460240034229D15B
:102CD000002D18D079783B7809021943BB78FF782A
:102CE0001B040B433F061F4380239B019C4653005C
:102CF000F95A614500D20919A31812339B00013219
:102D00009951AA42F3D35B46424618434B4698502A
:102D10005046FDF755FF2000F0BCBB46B246A94621
:102D2000A046F8BD0848FFF7ABFB202D02DDF9E710
:102D3000013BF7D3110099401C000842F8D1C1E7CC
:102D40000000D0AF9005002020300010F0B54E46B6
:102D5000DE46574645460C008446E0B583B00191F7
:102D60000CA9087861008B4609196446C9006418EB
:102D70002500DC352E68CC31B1462600CC363668CD
:102D80006144B246C026B60131438026B6020E60C9
:102D9000411E884141421F20084015494018052B1B
:102DA0000CD9A0271F267F05D8345101394305329D
:102DB000053B296032402060052BF6D852019B0666
:102DC00013435A4601995218D20062441100DC3173
:102DD0000B601300D83318604B460B605346CC325F
:102DE000136003B0F0BCBB46B246A946A046F0BD96
:102DF00080E0000070B501248C4094461A000368FE
:102E0000A3430360002A2FD04C006318DB00C318D3
:102E10001D001668C8352E605668DC336E609668F3
:102E2000D268AE601A606318DB001C008022D034C8
:102E300004195201224380242406146014600124E2
:102E4000124A25008A4082600A1D9540802208317E
:102E50008C40920102431560614614601F22C01825
:102E60000A40D830026070BD4C006318DB00C31804
:102E70001D008026C83576022E60F82676026E6028
:102E8000C026DC333603AE601A60CCE701010101D5
:102E9000030084469B070BD00300032102E00133AB
:102EA0000B4206D01A78002AF9D16246981A704768
:102EB000030019680C4A0D488A188A4302420FD150
:102EC0005968094A04338A188A43024208D159686A
:102ED000054A04338A188A430242F1D000E00133E4
:102EE0001A78002AFBD1E0E7FFFEFEFE808080809A
:102EF000F8B5C0460000000001B40248844601BC99
:102F0000604700BF5901002001B40248844601BC5B
:102F1000604700BF8101002001B40248844601BC23
:082F2000604700BFC100002062
:102F2800302F001004FF000021622311001442A476
:102F38009400D300783C1400FF500000FF00FF000D
:102F480000FFFF00FFFF000000000000FFFFFF0080
:102F58000000FF0000FF0000FF00000048617264ED
:102F68007761726520616C61726D20256420616CE7
:102F7800726561647920636C61696D656400000045
:102F88000A2A2A2A2050414E4943202A2A2A0A007E
:102F98000A000000486172642061737365727400EE
:102FA80052656C6561736500626F6F74325F77326A
:102FB8003571303830000000312E352E31000000D8
:102FC8007069636F000000007069636F5F6E656F02
:102FD800706978656C5F6F626A65746F00000000E5
:102FE8004A756E20313620323032360055415254FF
:102FF80020737464696E00005541525420737464E0
:103008006F7574005541525420737464696E202F93
:10301800207374646F7574004E6F2070726F6772DE
:10302800616D2073706163650000000006005250F6
:10303800D3F07542A82F001006005250E182887F15
:10304800B02F001006005250BBFF3CB6C82F00102E
:103058000D0A00000600525053B4F4A10C300010C1
:08306800080052509200000024
:103070003430001040300010880200104C30001036
:1030800094020010A0020010AC0200106830001082
:043090005C300010A0
:10309400F0B5C646160000B504001F000268EFF341
:1030A400108172B61368002BFCD0BFF35F8F04232A
:1030B400E3562268002B2BDBBFF35F8F00201060E8
:1030C40081F31088D02212061278002552B290465D
:1030D4009A420ED1002080BCB846F0BDBFF35F8F8A
:1030E400156081F310883000390000F035F80028AD
:1030F400F0D12268EFF3108172B61368002BFCD074
:10310400BFF35F8F237922687F2BE7D9434602E020
:10311400D0231B061B682371BFF35F8F002313604A
:1031240081F310880120D6E70268EFF3108172B6AC
:103134001368002BFCD0BFF35F8FFF230371036878
:10314400BFF35F8F00221A6081F3108840BF70477D
:103154007047C0460000000001B40248844601BC28
:10316400604700BF6D160010100000000000000052
:103174000000010000000000000000000000020048
:103184000000000000000000000003000000000038
:10319400000000000000FF000000000001B54868C6
:1031A40001318E460047704609380149884701BD00
:1031B4009D0E0010FC010020000000009002002081
:1031C400B00500200000000000000000C005002041
:1031D40000000000000000001000000000000000DB
:1031E400503300004C3300005433000052330000CD
:1031F4004D5300004D43000053340000433400009D
:10320400412A0010000000008D2A0010492B0010F4
:1032140000000000000100000000000000000000A9
:10322400ED270010FD240010BD25001059270010C3
:04323400E50200109F
:04000005100001E9FD
:00000001FF
